:100000000C9462000C948A000C948A000C948A0070
:100010000C948A000C948A000C948A000C948A0038
:100020000C948A000C948A000C948A000C948A0028
:100030000C948A000C948A000C948A000C948A0018
:100040000C94CB040C948A000C9499040C947304C3
:100050000C948A000C948A000C948A000C948A00F8
:100060000C948A000C948A000000000023002600F3
:10007000290000000008000201000003040700003E
:1000800000000000000000000000250028002B00F8
:1000900000000000240027002A00040404040404D3
:1000A0000404020202020202030303030303010227
:1000B00004081020408001020408102001020408F6
:1000C0001020F90611241FBECFEFD8E0DEBFCDBF50
:1000D00021E0AAE2B1E001C01D92A83DB207E1F71C
:1000E00011E0A0E0B1E0ECEBF3E102C005900D926D
:1000F000AA32B107D9F710E0C2E6D0E004C02197D8
:10010000FE010E94CE07C136D107C9F70E9415052E
:100110000C94DC090C9400000895AF92BF92CF922A
:10012000DF92EF92FF920F931F93CF93DF936C01B7
:100130007B018B01040F151FEB015E01AE18BF0898
:10014000C017D10759F06991D601ED91FC9101904A
:10015000F081E02DC6010995892B79F7C501DF9162
:10016000CF911F910F91FF90EF90DF90CF90BF90B4
:10017000AF900895FC01538D448D252F30E0842FDE
:1001800090E0821B930B541710F0CF9608950197BF
:100190000895FC01918D828D981761F0A28DAE0FAC
:1001A000BF2FB11D5D968C91928D9F5F9F73928F33
:1001B00090E008958FEF9FEF08952FB7F894809106
:1001C000330190913401A0913501B09136012FBFD8
:1001D00080933F0190934001A0934101B09342016D
:1001E00087E391E00E94C90097FF26C02FB7F894DB
:1001F0008091330190913401A0913501B091360185
:100200002FBF40913F015091400160914101709199
:100210004201841B950BA60BB70B40913B015091FB
:100220003C0160913D0170913E0184179507A6073E
:10023000B707B0F28FEF9FEF0895FC01918D828D8B
:10024000981731F0828DE80FF11D858D90E00895AB
:100250008FEF9FEF0895FC01918D228D892F90E003
:10026000805C9F4F821B91098F739927089587E3C4
:1002700091E00E942B0121E0892B09F420E0822FDC
:10028000089580E090E0892B29F00E9437018111C8
:100290000C9400000895FC01A48DA80FB92FB11D86
:1002A000A35ABF4F2C91848D90E001968F739927AC
:1002B000848FA689B7892C93A089B1898C9183708A
:1002C00080648C93938D848D981306C00288F38983
:1002D000E02D80818F7D80830895EF92FF920F93B0
:1002E0001F93CF93DF93EC0181E0888F9B8D8C8DE2
:1002F00098131AC0E889F989808185FF15C09FB7D6
:10030000F894EE89FF896083E889F9898081837098
:10031000806480839FBF81E090E0DF91CF911F9147
:100320000F91FF90EF900895F62E0B8D10E00F5F68
:100330001F4F0F731127E02E8C8D8E110CC00FB63E
:1003400007FCFACFE889F989808185FFF5CFCE01D6
:100350000E944B01F1CFEB8DEC0FFD2FF11DE35A05
:10036000FF4FF0829FB7F8940B8FEA89FB89808159
:100370008062CFCFCF93DF93EC01888D8823B9F0D3
:10038000AA89BB89E889F9898C9185FD03C08081A0
:1003900086FD0DC00FB607FCF7CF8C9185FFF2CF1D
:1003A000808185FFEDCFCE010E944B01E9CFDF9127
:1003B000CF910895833081F028F4813099F0823014
:1003C000A9F008958730A9F08830C9F08430B1F4DD
:1003D000809180008F7D03C0809180008F77809313
:1003E0008000089584B58F7784BD089584B58F7D8E
:1003F000FBCF8091B0008F778093B00008958091FB
:10040000B0008F7DF9CF1F93CF93DF93282F30E07B
:10041000F901EE58FF4F8491F901E255FF4FD49155
:10042000F901E656FF4FC491CC23A9F0162F811194
:100430000E94DA01EC2FF0E0EE0FFF1FEA57FF4FAA
:10044000A591B4918FB7F894EC91111108C0D09593
:10045000DE23DC938FBFDF91CF911F910895DE2BB8
:10046000F8CFCF93DF93D0E0C0E0009771F0FC01AC
:1004700001900020E9F73197AF01481B590BBC01EF
:1004800087E391E00E948D00EC0142E050E068E1DA
:1004900071E087E391E00E948D008C0F9D1FDF913A
:1004A000CF9108950F931F93CF93DF938C01EB01AE
:1004B000FC01808191810097E1F06881798161156B
:1004C0007105A9F0428153812C813D814217530768
:1004D00070F00E94D5098C819D81F80195838483F9
:1004E0001D821C82DF91CF911F910F9108950E9470
:1004F000700888819981F801918380838A819B812A
:10050000938382838C819D81958384831982188251
:100510001B821A82E5CFCF93DF93EC01888199810A
:10052000009711F00E947008198218821D821C82A7
:100530001B821A82DF91CF910895FC018081918105
:10054000009711F00C94700808950F931F93CF93A8
:10055000DF93EC0188819981009759F02A813B81D2
:100560002617370730F081E0DF91CF911F910F916F
:1005700008958B016F5F7F4F0E94F908009759F033
:10058000998388831B830A832C813D81232B59F710
:10059000FC011082E8CF80E0E7CFCF93DF93EC013E
:1005A00070E060E00E94A502811105C0CE01DF91DC
:1005B000CF910C948B021D821C826AE171E08881CC
:1005C0009981DF91CF910C94D5099F92AF92BF9200
:1005D000CF92DF92EF92FF920F931F93CF93DF930F
:1005E000EC016B015A0179012417350720F48B2D9A
:1005F0005901E42EF82E198218821B821A821D825C
:100600001C82CE010E94CD02D60114960D911C9140
:10061000A016B10658F5E016F10608F48701D601D8
:10062000ED91FC911197E00FF11F90801082ED90F9
:10063000FC90EA0CFB1CE114F10471F0F70101904D
:100640000020E9F731975F01AE18BF08B501CE0170
:100650000E94A502811117C0CE010E948B02F601F3
:1006600080819181080F191FD8019C92CE01DF91E2
:10067000CF911F910F91FF90EF90DF90CF90BF909F
:10068000AF909F900895BD82AC82B7018881998117
:100690000E94D509E4CFCF92DF92EF92FF920F93A1
:1006A0001F93CF93DF93CDB7DEB72B970FB6F89498
:1006B000DEBF0FBECDBF7C0161E271E00E94BF09C9
:1006C00010E000E06BE171E005C00E301105D4F3DD
:1006D0006EE171E0CE0109960E94D509BE01675F07
:1006E0007F4FC7010E94BF09C8010E3011050CF0F1
:1006F0000E974AE0BE016A5F7F4F0E944D07BE0120
:100700006A5F7F4FC7010E94BF0963E271E0C701C2
:100710000E94BF090E3011050CF051C0F801EE58CF
:10072000FF4F8491F801E255FF4FC490F801E6565F
:10073000FF4FD490DD2009F458C081110E94DA01E6
:10074000ED2DF0E0EE0FFF1FE859FF4FA591B4919A
:10075000EC91CE2231E020E009F430E0832F922F9B
:100760004AE0BE016F5F7F4F0E944D07BE016F5F81
:100770007F4FC7010E94BF090331110529F066E2CE
:1007800071E0C7010E94BF090F5F1F4F04311105BF
:1007900009F09BCF68E271E0C7010E94BF09C70161
:1007A0002B960FB6F894DEBF0FBECDBFDF91CF9171
:1007B0001F910F91FF90EF90DF90CF90089582EFFF
:1007C000800F806480937C0080917A0080648093A5
:1007D0007A0080917A0086FDFCCF9091780080911C
:1007E0007900892798278927BBCF90E080E0B8CF90
:1007F0008F929F92AF92BF92CF92DF92EF92FF9231
:100800000F931F93CF93DF9300D000D000D0CDB7CC
:10081000DEB7FC01048115810115110509F450C0F2
:100820007C01C080D1806DE370E0C6010E94CA09DE
:10083000009709F445C00330110508F441C08C014C
:100840000C191D0910161106DCF5980150E040E066
:10085000B701CE0101960E94E50289819A81812C1F
:10086000912C5401009719F00E9426074B01CE01EC
:1008700001960E949D02F70124813581A8014F5FF6
:100880005F4FB701CE0101960E94E50289819A81EE
:10089000C12CD12C7601009719F00E9426076B011C
:1008A000CE0101960E949D02F4E18F16910440F45E
:1008B00082E0C816D10420F46C2D882D0E9403021A
:1008C00026960FB6F894DEBF0FBECDBFDF91CF9155
:1008D0001F910F91FF90EF90DF90CF90BF90AF905E
:1008E0009F908F9008951F920F920FB60F92112430
:1008F0002F933F934F935F936F937F938F939F9328
:10090000AF93BF93EF93FF9387E391E00E944B0176
:10091000FF91EF91BF91AF919F918F917F916F91D7
:100920005F914F913F912F910F900FBE0F901F90AD
:1009300018951F920F920FB60F9211242F938F9339
:100940009F93EF93FF93E0914701F09148018081DD
:10095000E0914D01F0914E0182FD1BC0908180918C
:1009600050018F5F8F7320915101821741F0E09108
:100970005001F0E0E95CFE4F958F80935001FF91AC
:10098000EF919F918F912F910F900FBE0F901F901D
:1009900018958081F4CF1F920F920FB60F921124F9
:1009A0002F933F938F939F93AF93BF938091330186
:1009B00090913401A0913501B091360130912E0112
:1009C00023E0230F2D3758F50196A11DB11D20936B
:1009D0002E018093330190933401A0933501B0939D
:1009E000360180912A0190912B01A0912C01B091A8
:1009F0002D010196A11DB11D80932A0190932B0119
:100A0000A0932C01B0932D01BF91AF919F918F9135
:100A10003F912F910F900FBE0F901F90189526E8D1
:100A2000230F0296A11DB11DD2CFCF93DF93CDB777
:100A3000DEB7C45BD1090FB6F894DEBF0FBECDBFE1
:100A4000789484B5826084BD84B5816084BD85B5A9
:100A5000826085BD85B5816085BD80916E008160B5
:100A600080936E001092810080918100826080935B
:100A7000810080918100816080938100809180005D
:100A80008160809380008091B10084608093B10088
:100A90008091B00081608093B00080917A00846082
:100AA00080937A0080917A00826080937A008091AE
:100AB0007A00816080937A0080917A0080688093C8
:100AC0007A001092C100E0914701F091480182E064
:100AD0008083E0914301F09144011082E09145014F
:100AE000F09146018FEC808310924F01E0914B0111
:100AF000F0914C0186E08083E0914901F0914A0138
:100B0000808180618083E0914901F0914A01808178
:100B100088608083E0914901F0914A01808180687A
:100B20008083E0914901F0914A0180818F7D80832B
:100B300010E000E0802FF801E255FF4F9491F8019A
:100B4000E656FF4F2491222399F030E0220F331F05
:100B5000F901E057FF4FA591B491F901EA57FF4F12
:100B6000259134912FB7F894EC91E92BEC932FBF9A
:100B700060E00E9403020F5F1F4F0E301105D1F697
:100B80007E0103E0E00EF11C90E0C92E90E0D92E2A
:100B90008EE9B82E1A821982F7010B2D11920A954F
:100BA000E9F787E391E00E942B01181619060CF073
:100BB000F7C0C355DF4F19821882CD5AD040C155B6
:100BC000DF4F19821882CF5AD040CF54DF4F19829D
:100BD0001882C15BD040CE0183559F4F0E94CD0249
:100BE000C955DF4F19821882C75AD040C755DF4F09
:100BF00019821882C95AD040C555DF4F1982188210
:100C0000CB5AD040CE0189559F4F0E94CD02CF557F
:100C1000DF4F19821882C15AD040CD55DF4F19825B
:100C20001882C35AD040CB55DF4F19821882C55A5B
:100C3000D040CE018F559F4F0E94CD020E94DD0013
:100C400097FD34C0CD54DF4F8883C35BD040CC5474
:100C5000DF4F1882C45BD040CB55DF4F088119812C
:100C6000C55AD0400F5F1F4FB801CE018F559F4F1F
:100C70000E94A502882311F3CF55DF4F28813981C7
:100C8000C15AD040CB55DF4F88819981C55AD04099
:100C9000BE016D547F4F820F931F0E94D509CB5523
:100CA000DF4F19830883C55AD040C8CFBE016F55A6
:100CB0007F4FCE0183559F4F0E945202CE018F5528
:100CC0009F4F0E949D02CF54DF4F88819981C15B65
:100CD000D040892B09F443C0C355DF4F08811981E7
:100CE000CD5AD04066E270E0C8010E94CA09009760
:100CF000B1F19C01201B310B89010F3F100779F1E5
:100D0000980150E040E0BE0163557F4FCE018F5502
:100D10009F4F0E94E502BE016F557F4FCE0189555E
:100D20009F4F0E945202CE018F559F4F0E949D02FD
:100D3000CE0189559F4F0E94F803CF54DF4F288181
:100D40003981C15BD040A8014F5F5F4FBE01635541
:100D50007F4FCE018F559F4F0E94E502A7CFCE0156
:100D600083559F4F0E94F803CE0189559F4F0E94E3
:100D70009D02CE0183559F4F0E949D02CE01019698
:100D80000E944B030E943102C114D10409F402CF26
:100D90000E943701882309F4FBCE0E940000F0CEA8
:100DA0002FB7F8948091330190913401A0913501CF
:100DB000B09136012FBF40912F01509130016091C9
:100DC0003101709132018C019D01041B150B260B22
:100DD000370BB901A801483E534061057105A0F2E7
:100DE00080932F0190933001A0933101B093320191
:100DF000C5CFE7E3F1E01382128288EE93E0A0E032
:100E0000B0E084839583A683B7838AE091E09183E1
:100E1000808385EC90E09587848784EC90E09787C9
:100E2000868780EC90E0918B808B81EC90E0938BB7
:100E3000828B82EC90E0958B848B86EC90E0978B94
:100E4000868B118E128E138E148E08951F93FC01C3
:100E500099278827BC01E89411911032E9F31930E1
:100E600010F01E30C8F31B3251F01D3249F4689463
:100E700006C00E945807610F711D811D911D1191BF
:100E800010531A30B0F33EF49095809570956195AB
:100E90007F4F8F4F9F4F1F910895BB274A3031F4EA
:100EA000992322F4BDE2909581959F4F0C946E0793
:100EB000592F482F372F262F660F771F881F991F0E
:100EC000660F771F881F991F620F731F841F951F5E
:100ED000660F771F881F991F0895BB27FB015527B1
:100EE000AA27880F991FAA1FA41710F0A41B839587
:100EF0005051B9F7A05DAA3308F0A95DA1930097FE
:100F000079F7B111B1931192CB010C948707DC01F1
:100F1000FC01672F71917723E1F7329704C07C9130
:100F20006D9370836291AE17BF07C8F308952F9237
:100F30003F924F925F926F927F928F929F92AF9269
:100F4000BF92CF92DF92EF92FF920F931F93CF93B6
:100F5000DF93CDB7DEB7CA1BDB0B0FB6F894DEBF4D
:100F60000FBECDBF09942A88398848885F846E8473
:100F70007D848C849B84AA84B984C884DF80EE80BD
:100F8000FD800C811B81AA81B981CE0FD11D0FB6C6
:100F9000F894DEBF0FBECDBFED010895EE0FFF1F29
:100FA0000590F491E02D09940F931F93CF93DF9355
:100FB0008230910510F482E090E0E091D601F0914A
:100FC000D70130E020E0B0E0A0E0309799F421159F
:100FD000310509F44AC0281B390B24303105D8F5F6
:100FE0008A819B816115710589F1FB01938382835D
:100FF000FE0111C0408151810281138148175907B8
:10100000E0F04817590799F4109761F012960C9385
:10101000129713961C933296CF01DF91CF911F91B7
:101020000F9108950093D6011093D701F4CF2115A5
:10103000310551F04217530738F0A901DB019A013D
:10104000BD01DF01F801C1CFEF01F9CF9093D701C6
:101050008093D601CDCFFE01E20FF31F81939193D0
:101060002250310939832883D7CF2091D401309180
:10107000D501232B41F420910201309103013093DB
:10108000D5012093D4012091000130910101211557
:10109000310541F42DB73EB740910401509105014F
:1010A000241B350BE091D401F091D501E217F30731
:1010B000A0F42E1B3F0B2817390778F0AC014E5FC8
:1010C0005F4F2417350748F04E0F5F1F5093D5012F
:1010D0004093D401819391939FCFF0E0E0E09CCFC7
:1010E000CF93DF930097E9F0FC01329713821282CD
:1010F000A091D601B091D701ED0130E020E010972A
:10110000A1F420813181820F931F2091D40130916D
:10111000D5012817390709F061C0F093D501E09394
:10112000D401DF91CF910895EA01CE17DF07E8F5EA
:101130004A815B819E0141155105B1F7E901FB83AD
:10114000EA8349915991C40FD51FEC17FD0761F44B
:10115000808191810296840F951FE901998388838C
:10116000828193819B838A83F0E0E0E012968D91E7
:101170009C9113970097B9F52D913C911197CD0152
:101180000296820F931F2091D4013091D501281728
:10119000390739F6309751F51092D7011092D601E0
:1011A000B093D501A093D401BCCFD383C283408137
:1011B0005181840F951FC817D90761F44E5F5F4FA7
:1011C00088819981480F591F518340838A819B816F
:1011D000938382832115310509F0B0CFF093D701B5
:1011E000E093D6019ECFFD01DC01C0CF13821282B5
:1011F000D7CFB0E0A0E0EFEFF8E00C9499078C01B6
:10120000009751F4CB010E94D4078C01C801CDB7DF
:10121000DEB7E0E10C94B507FC01E60FF71F9C0177
:1012200022503109E217F30708F49DC0D901CD918E
:10123000DC911197C617D70798F0C530D10530F368
:10124000CE0104978617970708F3C61BD70B229782
:10125000C193D1936D937C93CF010E947008D6CF38
:101260005B01AC1ABD0A4C018C0E9D1EA091D601EB
:10127000B091D701512C412CF12CE12C109731F574
:101280008091D4019091D5018815990509F05CC031
:101290004616570608F058C0809100019091010150
:1012A000009741F48DB79EB740910401509105011C
:1012B000841B950BE817F90708F055C0F093D5018A
:1012C000E093D401F90171836083A0CF8D919C914B
:1012D000119712966C90129713967C901397A815FD
:1012E000B90559F56C0142E0C40ED11CCA14DB04E7
:1012F00020F1AC014A195B09DA011296159780F0CA
:101300006282738251834083D9016D937C93E1148F
:10131000F10471F0D7011396FC93EE93129776CFF8
:1013200022968C0F9D1FF90191838083F301EFCFEB
:10133000F093D701E093D60169CF4816590608F417
:101340002C017D01D3019ACFCB010E94D4077C01EF
:10135000009749F0AE01B8010E94B609C8010E9489
:101360007008870153CF10E000E050CFFB01DC0193
:1013700002C001900D9241505040D8F70895FB01F2
:10138000DC010D900020E9F7119701900D920020EB
:10139000E1F70895FC018191861721F08823D9F7A0
:1013A000992708953197CF010895FB01DC01019041
:0C13B0000D920020E1F70895F894FFCFA3
:1013BC000000D8018000000000006D018D00BA0013
:1013CC00BA012B01C9001D010D0A00224400224163
:0A13DC00007B00223A002C007D0087
:107E0000112484B714BE81FFF0D085E080938100F7
:107E100082E08093C00088E18093C10086E0809377
:107E2000C20080E18093C4008EE0C9D0259A86E02C
:107E300020E33CEF91E0309385002093840096BBD3
:107E4000B09BFECF1D9AA8958150A9F7CC24DD24C4
:107E500088248394B5E0AB2EA1E19A2EF3E0BF2EE7
:107E6000A2D0813461F49FD0082FAFD0023811F036
:107E7000013811F484E001C083E08DD089C08234E0
:107E800011F484E103C0853419F485E0A6D080C0E4
:107E9000853579F488D0E82EFF2485D0082F10E0AE
:107EA000102F00270E291F29000F111F8ED06801E7
:107EB0006FC0863521F484E090D080E0DECF843638
:107EC00009F040C070D06FD0082F6DD080E0C81688
:107ED00080E7D80618F4F601B7BEE895C0E0D1E017
:107EE00062D089930C17E1F7F0E0CF16F0E7DF06D8
:107EF00018F0F601B7BEE89568D007B600FCFDCFD4
:107F0000A601A0E0B1E02C9130E011968C91119780
:107F100090E0982F8827822B932B1296FA010C0160
:107F200087BEE89511244E5F5F4FF1E0A038BF0790
:107F300051F7F601A7BEE89507B600FCFDCF97BE46
:107F4000E89526C08437B1F42ED02DD0F82E2BD052
:107F50003CD0F601EF2C8F010F5F1F4F84911BD097
:107F6000EA94F801C1F70894C11CD11CFA94CF0C13
:107F7000D11C0EC0853739F428D08EE10CD085E9AC
:107F80000AD08FE07ACF813511F488E018D01DD067
:107F900080E101D065CF982F8091C00085FFFCCF94
:107FA0009093C60008958091C00087FFFCCF809118
:107FB000C00084FD01C0A8958091C6000895E0E648
:107FC000F0E098E1908380830895EDDF803219F02E
:107FD00088E0F5DFFFCF84E1DECF1F93182FE3DFCA
:107FE0001150E9F7F2DF1F91089580E0E8DFEE27F6
:047FF000FF270994CA
:027FFE00040479
:0400000300007E007B
:00000001FF
