:100000000C9462000C948A000C948A000C948A0070
:100010000C948A000C948A000C948A000C948A0038
:100020000C948A000C948A000C948A000C948A0028
:100030000C948A000C948A000C948A000C948A0018
:100040000C94FB040C948A000C94C9040C94A30433
:100050000C948A000C948A000C948A000C948A00F8
:100060000C948A000C948A000000000023002600F3
:10007000290000000008000201000003040700003E
:1000800000000000000000000000250028002B00F8
:1000900000000000240027002A00040404040404D3
:1000A0000404020202020202030303030303010227
:1000B00004081020408001020408102001020408F6
:1000C0001020CD0611241FBECFEFD8E0DEBFCDBF7C
:1000D00021E0AAE2B1E001C01D92A83DB207E1F71C
:1000E00011E0A0E0B1E0EEE4F3E102C005900D9272
:1000F000AA32B107D9F710E0C2E6D0E004C02197D8
:10010000FE010E94A207C136D107C9F70E9445052A
:100110000C94A5090C9400000895AF92BF92CF9261
:10012000DF92EF92FF920F931F93CF93DF936C01B7
:100130007B018B01040F151FEB015E01AE18BF0898
:10014000C017D10759F06991D601ED91FC9101904A
:10015000F081E02DC6010995892B79F7C501DF9162
:10016000CF911F910F91FF90EF90DF90CF90BF90B4
:10017000AF900895FC01538D448D252F30E0842FDE
:1001800090E0821B930B541710F0CF9608950197BF
:100190000895FC01918D828D981761F0A28DAE0FAC
:1001A000BF2FB11D5D968C91928D9F5F9F73928F33
:1001B00090E008958FEF9FEF08952FB7F894809106
:1001C000330190913401A0913501B09136012FBFD8
:1001D00080933F0190934001A0934101B09342016D
:1001E00087E391E00E94C90097FF26C02FB7F894DB
:1001F0008091330190913401A0913501B091360185
:100200002FBF40913F015091400160914101709199
:100210004201841B950BA60BB70B40913B015091FB
:100220003C0160913D0170913E0184179507A6073E
:10023000B707B0F28FEF9FEF0895FC01918D828D8B
:10024000981731F0828DE80FF11D858D90E00895AB
:100250008FEF9FEF0895FC01918D228D892F90E003
:10026000805C9F4F821B91098F739927089587E3C4
:1002700091E00E942B0121E0892B09F420E0822FDC
:10028000089580E090E0892B29F00E9437018111C8
:100290000C9400000895FC01A48DA80FB92FB11D86
:1002A000A35ABF4F2C91848D90E001968F739927AC
:1002B000848FA689B7892C93A089B1898C9183708A
:1002C00080648C93938D848D981306C00288F38983
:1002D000E02D80818F7D80830895EF92FF920F93B0
:1002E0001F93CF93DF93EC0181E0888F9B8D8C8DE2
:1002F00098131AC0E889F989808185FF15C09FB7D6
:10030000F894EE89FF896083E889F9898081837098
:10031000806480839FBF81E090E0DF91CF911F9147
:100320000F91FF90EF900895F62E0B8D10E00F5F68
:100330001F4F0F731127E02E8C8D8E110CC00FB63E
:1003400007FCFACFE889F989808185FFF5CFCE01D6
:100350000E944B01F1CFEB8DEC0FFD2FF11DE35A05
:10036000FF4FF0829FB7F8940B8FEA89FB89808159
:100370008062CFCFCF93DF93EC01888D8823B9F0D3
:10038000AA89BB89E889F9898C9185FD03C08081A0
:1003900086FD0DC00FB607FCF7CF8C9185FFF2CF1D
:1003A000808185FFEDCFCE010E944B01E9CFDF9127
:1003B000CF910895833081F028F4813099F0823014
:1003C000A9F008958730A9F08830C9F08430B1F4DD
:1003D000809180008F7D03C0809180008F77809313
:1003E0008000089584B58F7784BD089584B58F7D8E
:1003F000FBCF8091B0008F778093B00008958091FB
:10040000B0008F7DF9CF1F93CF93DF93282F30E07B
:10041000F901EE58FF4F8491F901E255FF4FD49155
:10042000F901E656FF4FC491CC23A9F0162F811194
:100430000E94DA01EC2FF0E0EE0FFF1FEA57FF4FAA
:10044000A591B4918FB7F894EC91111108C0D09593
:10045000DE23DC938FBFDF91CF911F910895DE2BB8
:10046000F8CF0F931F93CF93DF938C01EB01FC0127
:10047000808191810097E1F0688179816115710532
:10048000A9F0428153812C813D814217530770F0BE
:100490000E949E098C819D81F801958384831D8231
:1004A0001C82DF91CF911F910F9108950E94440803
:1004B00088819981F801918380838A819B819383CC
:1004C00082838C819D8195838483198218821B820B
:1004D0001A82E5CFCF93DF93EC0188819981009751
:1004E00011F00E944408198218821D821C821B820E
:1004F0001A82DF91CF910895FC018081918100974C
:1005000011F00C94440808950F931F93CF93DF9339
:10051000EC0188819981009759F02A813B81261747
:10052000370730F081E0DF91CF911F910F9108954F
:100530008B016F5F7F4F0E94CD08009759F0998320
:1005400088831B830A832C813D81232B59F7FC016F
:100550001082E8CF80E0E7CFEF92FF920F931F93D6
:10056000CF93DF938C017B01EB0109900020E9F729
:100570002197C61BD70BBE010E948402811109C0BE
:10058000C801DF91CF911F910F91FF90EF900C94D4
:100590006A02F801D583C483B70180819181DF911C
:1005A000CF911F910F91FF90EF900C949E099F9215
:1005B000AF92BF92CF92DF92EF92FF920F931F9371
:1005C000CF93DF93EC016B015A01790124173507B2
:1005D00020F48B2D5901E42EF82E198218821B82EB
:1005E0001A821D821C8269E271E0CE010E94AC0277
:1005F000D60114960D911C91A016B10658F5E0167F
:10060000F10608F48701D601ED91FC911197E00FF6
:10061000F11F90801082ED90FC90EA0CFB1CE1141D
:10062000F10471F0F70101900020E9F731975F01C3
:10063000AE18BF08B501CE010E948402811117C017
:10064000CE010E946A02F60180819181080F191F74
:10065000D8019C92CE01DF91CF911F910F91FF9015
:10066000EF90DF90CF90BF90AF909F900895BD82A4
:10067000AC82B701888199810E949E09E4CFEF92F4
:10068000FF920F931F93CF93DF9341155105B1F064
:100690007B01EC010C811D81040F151FB8010E9424
:1006A0008402882361F0288139818C819D81B70182
:1006B000820F931F0E949E091D830C8381E0DF91AE
:1006C000CF911F910F91FF90EF900895FB01019042
:1006D0000020E9F73197AF01461B570B0C943F03FD
:1006E000EF92FF920F931F93CF93DF93CDB7DEB7B7
:1006F00028970FB6F894DEBF0FBECDBF7C01CB01AB
:100700004AE08E010F5F1F4FB8010E942107F801D8
:1007100001900020E9F73197AF01401B510BB80160
:10072000C7010E943F0328960FB6F894DEBF0FBEA4
:10073000CDBFDF91CF911F910F91FF90EF90089562
:10074000EF92FF920F931F93CF93DF938C01FC01E5
:1007500011821082138212821582148260E271E08B
:100760000E94AC02D0E0C0E06BE171E005C0CE3089
:10077000D105D4F368E171E0C8010E946603BE01AF
:10078000CE30D10514F06E507109C8010E9470037B
:1007900062E271E0C8010E946603CE30D1050CF020
:1007A00042C0FE01EE58FF4F8491FE01E255FF4F1B
:1007B000E490FE01E656FF4FF49070E060E0FF2009
:1007C00099F081110E94DA01EF2DF0E0EE0FFF1F8A
:1007D000E859FF4FA591B491EC91EE2291E080E0B1
:1007E00009F490E0692F782FC8010E9470036EE130
:1007F00071E0C331D10511F469E271E0C8010E94D2
:1008000066032196C431D10509F0B1CF65E271E0EC
:10081000C8010E946603C801DF91CF911F910F911B
:10082000FF90EF9008958C2F8E50806480937C0011
:1008300080917A00806480937A0080917A0086FDAE
:10084000FCCF8091780060917900762F682FCCCF13
:100850008F929F92AF92BF92CF92DF92EF92FF92D0
:100860000F931F93CF93DF9300D000D000D0CDB76C
:10087000DEB7FC01048115810115110509F450C092
:100880007C01C080D1806DE370E0C6010E949309B5
:10089000009709F445C00330110508F441C08C01EC
:1008A0000C191D0910161106DCF5980150E040E006
:1008B000B701CE0101960E94D70289819A81812CCD
:1008C000912C5401009719F00E94FA064B01CE01B9
:1008D00001960E947C02F70124813581A8014F5FB7
:1008E0005F4FB701CE0101960E94D70289819A819C
:1008F000C12CD12C7601009719F00E94FA066B01E9
:10090000CE0101960E947C02F4E18F16910440F41E
:1009100082E0C816D10420F46C2D882D0E940302B9
:1009200026960FB6F894DEBF0FBECDBFDF91CF91F4
:100930001F910F91FF90EF90DF90CF90BF90AF90FD
:100940009F908F9008951F920F920FB60F921124CF
:100950002F933F934F935F936F937F938F939F93C7
:10096000AF93BF93EF93FF9387E391E00E944B0116
:10097000FF91EF91BF91AF919F918F917F916F9177
:100980005F914F913F912F910F900FBE0F901F904D
:1009900018951F920F920FB60F9211242F938F93D9
:1009A0009F93EF93FF93E0914701F091480180817D
:1009B000E0914D01F0914E0182FD1BC0908180912C
:1009C00050018F5F8F7320915101821741F0E091A8
:1009D0005001F0E0E95CFE4F958F80935001FF914C
:1009E000EF919F918F912F910F900FBE0F901F90BD
:1009F00018958081F4CF1F920F920FB60F92112499
:100A00002F933F938F939F93AF93BF938091330125
:100A100090913401A0913501B091360130912E01B1
:100A200023E0230F2D3758F50196A11DB11D20930A
:100A30002E018093330190933401A0933501B0933C
:100A4000360180912A0190912B01A0912C01B09147
:100A50002D010196A11DB11D80932A0190932B01B8
:100A6000A0932C01B0932D01BF91AF919F918F91D5
:100A70003F912F910F900FBE0F901F90189526E871
:100A8000230F0296A11DB11DD2CFCF93DF93CDB717
:100A9000DEB764970FB6F894DEBF0FBECDBF789473
:100AA00084B5826084BD84B5816084BD85B5826073
:100AB00085BD85B5816085BD80916E008160809324
:100AC0006E0010928100809181008260809381008D
:100AD000809181008160809381008091800081609D
:100AE000809380008091B10084608093B1008091F8
:100AF000B00081608093B00080917A008460809320
:100B00007A0080917A00826080937A0080917A00E6
:100B1000816080937A0080917A00806880937A0067
:100B20001092C100E0914701F091480182E080837A
:100B3000E0914301F09144011082E0914501F09170
:100B400046018FEC808310924F01E0914B01F091B0
:100B50004C0186E08083E0914901F0914A01808157
:100B600080618083E0914901F0914A018081886031
:100B70008083E0914901F0914A01808180688083FF
:100B8000E0914901F0914A0180818F7D808310E0DE
:100B900000E0802FF801E255FF4F9491F801E656EE
:100BA000FF4F2491222399F030E0220F331FF901E7
:100BB000E057FF4FA591B491F901EA57FF4F2591F6
:100BC00034912FB7F894EC91E92BEC932FBF60E0B0
:100BD0000E9403020F5F1F4F0E301105D1F680E017
:100BE000E82E80E0F82E87E391E00E942B01181692
:100BF00019060CF0A9C01E861D86188A1F861A8A3F
:100C0000198A69E271E0CE010D960E94AC02188645
:100C10001F821A8619861C861B8669E271E0CE0146
:100C200007960E94AC021A8219821C821B821E82C5
:100C30001D8269E271E0CE0101960E94AC020E9421
:100C4000DD0097FD0CC08B8B1C8A41E050E0BE019B
:100C50006D5E7F4FCE0101960E943F03F0CFBE0133
:100C60006F5F7F4FCE010D960E943102CE0101963B
:100C70000E947C0289899A89892BB1F10D851E8594
:100C800066E270E0C8010E949309009769F19C0137
:100C9000201B310B89010F3F100731F1980150E003
:100CA00040E0BE01635F7F4FCE0101960E94D702F4
:100CB000BE016F5F7F4FCE0107960E943102CE01C9
:100CC00001960E947C02CE0107960E942804298981
:100CD0003A89A8014F5F5F4FBE01635F7F4FCE012E
:100CE00001960E94D702BBCFCE010D960E94280428
:100CF000CE0107960E947C02CE010D960E947C02D6
:100D0000CE0101960E94A0034D815E8169817A81A6
:100D100087E391E00E948D0042E050E067E271E0DD
:100D200087E391E00E948D00CE0101960E947C0233
:100D3000E114F10409F457CF0E943701882309F424
:100D400052CF0E9400004FCF2FB7F894809133010B
:100D500090913401A0913501B09136012FBF40919F
:100D60002F015091300160913101709132018C015D
:100D70009D01041B150B260B370BB901A801483E3A
:100D8000534061057105A0F280932F0190933001CB
:100D9000A0933101B0933201B3CFE7E3F1E01382C6
:100DA000128288EE93E0A0E0B0E084839583A6836E
:100DB000B7838AE091E09183808385EC90E095870A
:100DC000848784EC90E09787868780EC90E0918B15
:100DD000808B81EC90E0938B828B82EC90E0958B02
:100DE000848B86EC90E0978B868B118E128E138EFF
:100DF000148E08951F93FC0199278827BC01E8945D
:100E000011911032E9F3193010F01E30C8F31B3283
:100E100051F01D3249F4689406C00E942C07610FFE
:100E2000711D811D911D119110531A30B0F33EF4C4
:100E300090958095709561957F4F8F4F9F4F1F9133
:100E40000895BB274A3031F4992322F4BDE29095EE
:100E500081959F4F0C944207592F482F372F262FEB
:100E6000660F771F881F991F660F771F881F991FAE
:100E7000620F731F841F951F660F771F881F991FAE
:100E80000895BB27FB015527AA27880F991FAA1F82
:100E9000A41710F0A41B83955051B9F7A05DAA3395
:100EA00008F0A95DA193009779F7B111B193119260
:100EB000CB010C945B07DC01FC01672F7191772358
:100EC000E1F7329704C07C916D9370836291AE1705
:100ED000BF07C8F308952F923F924F925F926F928F
:100EE0007F928F929F92AF92BF92CF92DF92EF92BA
:100EF000FF920F931F93CF93DF93CDB7DEB7CA1B3B
:100F0000DB0B0FB6F894DEBF0FBECDBF09942A8865
:100F1000398848885F846E847D848C849B84AA840D
:100F2000B984C884DF80EE80FD800C811B81AA819A
:100F3000B981CE0FD11D0FB6F894DEBF0FBECDBF65
:100F4000ED010895EE0FFF1F0590F491E02D099437
:100F50000F931F93CF93DF938230910510F482E0BB
:100F600090E0E091D601F091D70130E020E0B0E0D0
:100F7000A0E0309799F42115310509F44AC0281BE7
:100F8000390B24303105D8F58A819B8161157105B3
:100F900089F1FB0193838283FE0111C0408151815D
:100FA0000281138148175907E0F04817590799F44F
:100FB000109761F012960C93129713961C93329629
:100FC000CF01DF91CF911F910F9108950093D6012A
:100FD0001093D701F4CF2115310551F04217530773
:100FE00038F0A901DB019A01BD01DF01F801C1CF91
:100FF000EF01F9CF9093D7018093D601CDCFFE01B9
:10100000E20FF31F81939193225031093983288392
:10101000D7CF2091D4013091D501232B41F42091D9
:101020000201309103013093D5012093D401209126
:101030000001309101012115310541F42DB73EB772
:101040004091040150910501241B350BE091D4011E
:10105000F091D501E217F307A0F42E1B3F0B2817E0
:10106000390778F0AC014E5F5F4F2417350748F021
:101070004E0F5F1F5093D5014093D40181939193FC
:101080009FCFF0E0E0E09CCFCF93DF930097E9F0B3
:10109000FC01329713821282A091D601B091D70140
:1010A000ED0130E020E01097A1F420813181820F22
:1010B000931F2091D4013091D5012817390709F0E9
:1010C00061C0F093D501E093D401DF91CF910895F1
:1010D000EA01CE17DF07E8F54A815B819E014115E1
:1010E0005105B1F7E901FB83EA8349915991C40F96
:1010F000D51FEC17FD0761F4808191810296840F62
:10110000951FE90199838883828193819B838A83D8
:10111000F0E0E0E012968D919C9113970097B9F55D
:101120002D913C911197CD010296820F931F209132
:10113000D4013091D5012817390739F6309751F588
:101140001092D7011092D601B093D501A093D4018B
:10115000BCCFD383C28340815181840F951FC817B0
:10116000D90761F44E5F5F4F88819981480F591FFD
:10117000518340838A819B8193838283211531052A
:1011800009F0B0CFF093D701E093D6019ECFFD01D7
:10119000DC01C0CF13821282D7CFB0E0A0E0E3ED34
:1011A000F8E00C946D078C01009751F4CB010E947C
:1011B000A8078C01C801CDB7DEB7E0E10C94890720
:1011C000FC01E60FF71F9C0122503109E217F307DB
:1011D00008F49DC0D901CD91DC911197C617D707AE
:1011E00098F0C530D10530F3CE01049786179707E4
:1011F00008F3C61BD70B2297C193D1936D937C93B1
:10120000CF010E944408D6CF5B01AC1ABD0A4C0145
:101210008C0E9D1EA091D601B091D701512C412C6E
:10122000F12CE12C109731F58091D4019091D501EA
:101230008815990509F05CC04616570608F058C095
:101240008091000190910101009741F48DB79EB704
:101250004091040150910501841B950BE817F90793
:1012600008F055C0F093D501E093D401F9017183E2
:101270006083A0CF8D919C91119712966C901297DC
:1012800013967C901397A815B90559F56C0142E0A7
:10129000C40ED11CCA14DB0420F1AC014A195B094D
:1012A000DA011296159780F062827382518340832F
:1012B000D9016D937C93E114F10471F0D701139679
:1012C000FC93EE93129776CF22968C0F9D1FF90117
:1012D00091838083F301EFCFF093D701E093D601A0
:1012E00069CF4816590608F42C017D01D3019ACF25
:1012F000CB010E94A8077C01009749F0AE01B8011C
:101300000E948A09C8010E944408870153CF10E057
:1013100000E050CFFB01DC0102C001900D92415072
:101320005040D8F70895FC018191861721F0882359
:10133000D9F7992708953197CF010895FB01DC0172
:0E13400001900D920020E1F70895F894FFCF80
:10134E000000D8018000000000006D018D00BA0081
:10135E00BA012B01C9001D012241002244002C00BC
:0A136E007B00223A007D000D0A000A
:00000001FF
