:100000000C9462000C948A000C948A000C948A0070
:100010000C948A000C948A000C948A000C948A0038
:100020000C948A000C948A000C948A000C948A0028
:100030000C948A000C948A000C948A000C948A0018
:100040000C94B3060C948A000C9481060C945B0605
:100050000C948A000C948A000C948A000C948A00F8
:100060000C948A000C948A000000000025002800EF
:100070002B0000000000240027002A0000000000E0
:1000800023002600290004040404040404040202DA
:100090000202020203030303030301020408102007
:1000A0004080010204081020010204081020000012
:1000B0000008000201000003040700000000000027
:1000C0000000FD0611241FBECFEFD8E0DEBFCDBF7C
:1000D00011E0A0E0B1E0E2EDF1E102C005900D9287
:1000E000AE33B107D9F721E0AEE3B1E001C01D9214
:1000F000A53FB207E1F710E0C2E6D0E004C02197C7
:10010000FE010E94E108C136D107C9F70E943407F9
:100110000C94E7080C9400008CBD9DBD0895AF922F
:10012000BF92CF92DF92EF92FF920F931F93CF93E4
:10013000DF936C017B018B01040F151FEB015E0146
:10014000AE18BF08C017D10759F06991D601ED91DB
:10015000FC910190F081E02DC6010995892B79F77A
:10016000C501DF91CF911F910F91FF90EF90DF902C
:10017000CF90BF90AF900895FC01538D448D252FF3
:1001800030E0842F90E0821B930B541710F0CF9631
:10019000089501970895FC01918D828D981761F063
:1001A000A28DAE0FBF2FB11D5D968C91928D9F5F7A
:1001B0009F73928F90E008958FEF9FEF0895FC0159
:1001C000918D828D981731F0828DE80FF11D858D0C
:1001D00090E008958FEF9FEF0895FC01918D228D9F
:1001E000892F90E0805C9F4F821B91098F73992724
:1001F000089588E491E00E94ED0021E0892B09F444
:1002000020E0822F089580E090E0892B29F00E9461
:10021000F90081110C9400000895FC01A48DA80F31
:10022000B92FB11DA35ABF4F2C91848D90E0019638
:100230008F739927848FA689B7892C93A089B18958
:100240008C91837080648C93938D848D981306C0F9
:100250000288F389E02D80818F7D80830895EF925D
:10026000FF920F931F93CF93DF93EC0181E0888F70
:100270009B8D8C8D98131AC0E889F989808185FF40
:1002800015C09FB7F894EE89FF896083E889F989E2
:1002900080818370806480839FBF81E090E0DF91E4
:1002A000CF911F910F91FF90EF900895F62E0B8D37
:1002B00010E00F5F1F4F0F731127E02E8C8D8E11F2
:1002C0000CC00FB607FCFACFE889F989808185FF59
:1002D000F5CFCE010E940D01F1CFEB8DEC0FFD2F7C
:1002E000F11DE35AFF4FF0829FB7F8940B8FEA8914
:1002F000FB8980818062CFCFCF93DF93EC01888D23
:100300008823B9F0AA89BB89E889F9898C9185FD90
:1003100003C0808186FD0DC00FB607FCF7CF8C911E
:1003200085FFF2CF808185FFEDCFCE010E940D01C8
:10033000E9CFDF91CF910895833081F028F48130A7
:1003400099F08230A9F008958730A9F08830C9F07B
:100350008430B1F4809180008F7D03C08091800053
:100360008F7780938000089584B58F7784BD08953A
:1003700084B58F7DFBCF8091B0008F778093B000E4
:1003800008958091B0008F7DF9CF1F93CF93DF93B5
:10039000282F30E0F901E255FF4F8491F901E6562C
:1003A000FF4FD491F901EA57FF4FC491CC23A9F034
:1003B000162F81110E949C01EC2FF0E0EE0FFF1F21
:1003C000E859FF4FA591B4918FB7F894EC911111B2
:1003D00008C0D095DE23DC938FBFDF91CF911F91B2
:1003E0000895DE2BF8CFCF93DF9390E0FC01E65623
:1003F000FF4F24918A579F4FFC0184918823D1F0AD
:1004000090E0880F991FFC01EE58FF4FA591B49121
:10041000FC01E859FF4FC591D49161110EC09FB7FF
:10042000F8948C91E22FE0958E238C932881E2231F
:10043000E8839FBFDF91CF9108958FB7F894EC9137
:10044000E22BEC938FBFF6CF3FB7F8948091430136
:1004500090914401A0914501B091460126B5A89B19
:1004600005C02F3F19F00196A11DB11D3FBFBA2F46
:10047000A92F982F8827BC01CD01620F711D811D06
:10048000911D42E0660F771F881F991F4A95D1F78B
:1004900008958F929F92AF92BF92CF92DF92EF9288
:1004A000FF920E9424024B015C0182E3C82ED12CF2
:1004B000E12CF12C0E942402681979098A099B0910
:1004C000683E734081059105A8F321E0C21AD10866
:1004D000E108F10888EE880E83E0981EA11CB11C8B
:1004E000C114D104E104F10429F7FF90EF90DF90EB
:1004F000CF90BF90AF909F908F900895BC016E5F9A
:100500007F4FDC01ED91FC910190F081E02D40E006
:10051000099591E0811190E0892F089508958EBD8D
:1005200000000DB407FEFDCF8EB50895DF92EF9267
:10053000FF920F931F93CF93DF937C01062FD42E4E
:10054000152F83E590E00E948C0060E0F70186851E
:100550000E94C50182E10E948F02CD2DD12F0C0F88
:100560001D2F111DC017D10721F089910E948F0204
:10057000F9CF61E0F7018685DF91CF911F910F914F
:10058000FF90EF90DF900C94C5011F93CF93DF9302
:10059000EC01162F83E590E00E948C0060E08E85D0
:1005A0000E94C501812F80680E948F0280E00E9416
:1005B0008F02182F61E08E850E94C501812FDF9187
:1005C000CF911F9108950F931F93CF93DF93EC0169
:1005D000062F142F83E590E00E948C0060E08E854A
:1005E0000E94C501802F0E948F02812F0E948F02DE
:1005F00061E08E85DF91CF911F910F910C94C50121
:10060000CF92DF92EF92FF920F931F93CF93DF93DE
:10061000EC016B01142F790140E062E00E94E302DB
:1006200044E06AE0CE010E94E30240E864E1CE01CA
:100630000E94E302A601612FCE010E94960243E0D0
:1006400062E0CE010E94E30208E813E16AE0CE0115
:100650000E94C50282FF1BC040E062E0CE010E9402
:10066000E30264E4CE010E94C502F701808362E4E4
:10067000CE010E94C502F701818380E0DF91CF9116
:100680001F910F91FF90EF90DF90CF900895015050
:100690001109E1F683E0F2CF3F924F925F926F92A1
:1006A0007F928F929F92AF92BF92CF92DF92EF9202
:1006B000FF920F931F93CF93DF9300D0CDB7DEB798
:1006C0004C012B01D42E390180E0E114F10411F02A
:1006D000F7018081BC2CB29490EFB922B80E40E0B3
:1006E00062E0C4010E94E3024FE768E0C4010E9497
:1006F000E30240E864E1C4010E94E302A2016D2D1F
:10070000C4010E9496024B2D6AE1C4010E94E302DB
:100710004CE062E0C4010E94E3026AE1C4010E946D
:10072000C502482F40686AE1C4010E94E30220ED3F
:10073000422E27E0522E68E0C4010E94C502982F85
:10074000907309F0B6C080FD04C0F1E04F1A510863
:1007500091F783E094C06114710409F46DC0011530
:10076000110509F469C064E1C4010E94C502B82EF4
:10077000F80180818B1508F496C0B082BB20E1F1AE
:1007800083E590E00E948C0060E0F40186850E9481
:10079000C501BA9482E90E948F02CC20B1F08FEF9C
:1007A00090E09C0102C0220F331FCA94E2F7690156
:1007B00082E90E948F029C2D9095F3012081922363
:1007C0008C21982B9083CC24C39423014C0C511C76
:1007D000CB1440F482E90E948F02F20181932F0131
:1007E000C394F6CF80E00E948F02F201808361E023
:1007F000F40186850E94C50168E1C4010E94C5021A
:100800008770E114F10411F0F701808333FC4DC0CF
:100810006114710409F44BC00115110509F447C0B6
:10082000AA2009F444C0F8014081413039F48430F1
:1008300009F049C08FEF23C080E0E8CF423008F4D0
:1008400042C0811140C042509E012F5F3F4FB30113
:10085000C4010E940003811112C0F8019081690E49
:10086000711CF30132972081998129132CC0F1E08A
:100870006F1A7108F30120819A81291324C00F9007
:100880000F90DF91CF911F910F91FF90EF90DF902C
:10089000CF90BF90AF909F908F907F906F905F9020
:1008A0004F903F90089584E0EACF82E0E8CF80E067
:1008B000E6CF6CE0C4010E94C502382E837109F4B2
:1008C0004ACF81E0DCCF87E0DACF8F929F92AF9260
:1008D000CF92EF92FF920F931F93CF93DF9300D0AD
:1008E00000D01F92CDB7DEB74C0182E08D8340E08F
:1008F00064E2C4010E94E30240E066E2C4010E9497
:10090000E30246E268E4C4010E94E30286E28B83CC
:100910008D818230D8F16CE1C4010E94C502482F5C
:100920004F776CE1C4010E94E30287E08C83A12C25
:10093000C12CCE0104967C018E010B5F1F4F9E01DE
:100940002F5F3F4F41E0BE016D5F7F4FC4010E94AA
:100950004C03982F811117C08D818230B9F48C819E
:10096000811114C081E00F900F900F900F900F90A5
:10097000DF91CF911F910F91FF90EF90CF90AF90AB
:100980009F908F90089581E0923069F380E0EBCFE3
:100990002F923F924F925F926F927F928F929F928F
:1009A000AF92BF92CF92DF92EF92FF920F931F937D
:1009B000CF93DF93CDB7DEB72D970FB6F894DEBF98
:1009C0000FBECDBF16E0413508F04AC1342E3B01C1
:1009D0004C016CE10E94C502482F4F776CE1C401C5
:1009E0000E94E30283E98983332029F081E0F30147
:1009F0009081953008F480E022242394B12C9B2D23
:100A0000990F990F990FD32CD91AD7FCD12C32E01A
:100A1000882319F098E89B8333E021E09D2D97709F
:100A200009F420E09D2D959595959595290FC9F090
:100A300094E0811193E0291708F4922FEB2DF0E058
:100A40003196E60DF71D232F4191A1E0B0E0AC0FE8
:100A5000BD1FA20FB11D4C932F5F422F431B49179F
:100A600098F3882311F0F8E0DF0E8FE18D150CF07C
:100A700082C090E79A838B819C8189279D818927F9
:100A80009E8189278F839E01285F3F4F47E0BE01EB
:100A90006F5F7F4FC4010E940003182F8111E0C0D7
:100AA0001A86E3E0EB87DC86CE0107962C0199E0FD
:100AB0009D87CA844C2D4295407F4C0D6AE1C4014C
:100AC0000E94E302A12CCE010A967C018E01055FF3
:100AD0001F4F92014D85BE016F5F7F4FC4010E9481
:100AE0004C03182F823009F065C06CE1C4010E94EC
:100AF000C50285FDB5C08F7109F480E2282F30E072
:100B00004D2DDD0C550B421753070CF09DC0D82E10
:100B1000E82FE595E595E595EF5F982F977081E0D3
:100B200009F480E0E80F81E090E08C0F9D1F8E0FAC
:100B3000911DFC01215031092770332781E090E09D
:100B400002C0880F991F2A95E2F79C018081822BB1
:100B500080838BCF85E98983332031F081E0F301F5
:100B60009081983008F04BCF80E049CF87E98983A6
:100B700026E0B22EF9CF9D2D97709A878D2D859501
:100B8000859585958E5F282F2295207F290F2A83B2
:100B900021E0911101C020E0280F2D8744244394C7
:100BA000512C4C0E5D1E480E511CE9E0E81BEB87F2
:100BB000DC867FCF811154C080E2D82E9C85903294
:100BC0000CF457CF8B81883809F040C083E093E064
:100BD000EB2DF0E03196E60DF71D980FA1E0B0E0A7
:100BE000AC0FBD1FA80FB11D2C9121938F5F8913EE
:100BF000F5CFBB84E3E0BE124DC08A8581114AC0A7
:100C00009E012D5F3F4F41E0B201C4010E940003ED
:100C1000182F811125C09B81F201818198133CC05E
:100C20009C818281981338C0808182FF12C02394F6
:100C3000F2E02F1609F48ECF83E0281609F496CF40
:100C400091E0291609F4CECE15E00AC082E094E0C6
:100C5000BFCFF3018387822D880F820D8F5F808342
:100C6000812F2D960FB6F894DEBF0FBECDBFDF915A
:100C7000CF911F910F91FF90EF90DF90CF90BF9099
:100C8000AF909F908F907F906F905F904F903F902C
:100C90002F90089511E0E4CF17E0E2CFFC0101901E
:100CA0000020E9F73197AF01481B590BBC0188E4DC
:100CB00091E00C948F001F920F920FB60F921124A7
:100CC0002F933F934F935F936F937F938F939F9354
:100CD000AF93BF93EF93FF9388E491E00E940D01DF
:100CE000FF91EF91BF91AF919F918F917F916F9104
:100CF0005F914F913F912F910F900FBE0F901F90DA
:100D000018951F920F920FB60F9211242F938F9365
:100D10009F93EF93FF93E0915801F09159018081E7
:100D2000E0915E01F0915F0182FD1BC09081809196
:100D300061018F5F8F7320916201821741F0E09112
:100D40006101F0E0E85BFE4F958F80936101FF91B8
:100D5000EF919F918F912F910F900FBE0F901F9049
:100D600018958081F4CF1F920F920FB60F92112425
:100D70002F933F938F939F93AF93BF9380913F01A6
:100D800090914001A0914101B091420130913E010A
:100D900023E0230F2D3758F50196A11DB11D209397
:100DA0003E0180933F0190934001A0934101B09395
:100DB00042018091430190914401A0914501B0917D
:100DC00046010196A11DB11D8093430190934401FA
:100DD000A0934501B0934601BF91AF919F918F9130
:100DE0003F912F910F900FBE0F901F90189526E8FE
:100DF000230F0296A11DB11DD2CFE8E4F1E01382CA
:100E0000128288EE93E0A0E0B0E084839583A6830D
:100E1000B78384E091E09183808385EC90E09587AF
:100E2000848784EC90E09787868780EC90E0918BB4
:100E3000808B81EC90E0938B828B82EC90E0958BA1
:100E4000848B86EC90E0978B868B118E128E138E9E
:100E5000148EE5EEF1E086E191E0918380838AE0F3
:100E6000868789E087870895CF93DF93CDB7DEB774
:100E7000A1970FB6F894DEBF0FBECDBF789484B5AE
:100E8000826084BD84B5816084BD85B5826085BD86
:100E900085B5816085BD80916E00816080936E0014
:100EA0001092810080918100826080938100809106
:100EB00081008160809381008091800081608093B7
:100EC00080008091B10084608093B1008091B00077
:100ED00081608093B00080917A00846080937A0072
:100EE00080917A00826080937A0080917A0081609C
:100EF00080937A0080917A00806880937A001092C3
:100F0000C100E0915801F091590182E08083E091A5
:100F10005401F09155011082E0915601F091570172
:100F20008FEC808310926001E0915C01F0915D0193
:100F300086E08083E0915A01F0915B0180818061BD
:100F40008083E0915A01F0915B0180818860808309
:100F5000E0915A01F0915B01808180688083E0918B
:100F60005A01F0915B0180818F7D80831FB7F894D7
:100F700080914701811127C0E0E9F0E08491E4EA23
:100F8000F0E09491E82FF0E0EE0FFF1FEE58FF4FD6
:100F9000A591B491EC91E92321F461E08AE00E94EB
:100FA000C50161E08AE00E94F3018CB580618CBDCF
:100FB0008CB580648CBD61E08DE00E94F30161E03E
:100FC0008BE00E94F301809147018F5F809347017E
:100FD0001FBF61E08091F3010E94F30161E0809105
:100FE000F3010E94C5018091F4018F3F09F4C4C050
:100FF00060E00E94F3012091F40130E0F901E25534
:10100000FF4F8491F901E656FF4F0491F901EA5729
:10101000FF4F14911111A1C061E08091F4010E9471
:10102000F30160E08091F4010E94C50183E090E04B
:101030000197F1F761E08091F4010E94C5010E94DF
:10104000490240E064E285EE91E00E94E30240E064
:1010500066E285EE91E00E94E30246E268E485EEF6
:1010600091E00E94E30240E864E585EE91E00E9491
:10107000E30249EA66E585EE91E00E94E30243E07F
:1010800068E585EE91E00E94E30248EE6AE585EEB0
:1010900091E00E94E30240E46AE285EE91E00E9462
:1010A000E3024DE362E285EE91E00E94E30268E232
:1010B00085EE91E00E94C502982F9370933039F02D
:1010C000482F436068E285EE91E00E94E30200E071
:1010D00010E085EE91E00E946504882309F465C064
:1010E00085EE91E00E947E02882309F45EC08CE1C7
:1010F00091E00E944E06F12C8091E701F81608F06D
:1011000050C0EF2DF0E0EB51FE4F438150E070E016
:1011100060E019A2FE01B196DB01CA018F70992728
:10112000AA27BB2794E076956795579547959A959A
:10113000D1F78A30A4F5805D829341155105610590
:10114000710551F7309719F0CF010E944E0689E3DF
:1011500091E00E944E06F394CFCF81110E949C0132
:10116000E12FF0E0EE0FFF1FE458FF4FA591B4917F
:10117000EC910E2309F450CF4FE062E085EE91E050
:101180000E94E30213E00E94490262E085EE91E0D2
:101190000E94C50284FF55CF1150A9F752CF895C38
:1011A000CBCF8BE391E00E944E060115110509F4A7
:1011B00090CF0E94F900882309F48BCF0E94000091
:1011C00088CFEE0FFF1F0590F491E02D0994F8945D
:0211D000FFCF4F
:1011D200000000002F018F00BC007C01ED00CB005D
:1011E200DF0000000000C80465047E024469652037
:1011F20049442064657320524649442D5441475363
:0E120200206C61757465743A0020000D0A00BE
:107E0000112484B714BE81FFF0D085E080938100F7
:107E100082E08093C00088E18093C10086E0809377
:107E2000C20080E18093C4008EE0C9D0259A86E02C
:107E300020E33CEF91E0309385002093840096BBD3
:107E4000B09BFECF1D9AA8958150A9F7CC24DD24C4
:107E500088248394B5E0AB2EA1E19A2EF3E0BF2EE7
:107E6000A2D0813461F49FD0082FAFD0023811F036
:107E7000013811F484E001C083E08DD089C08234E0
:107E800011F484E103C0853419F485E0A6D080C0E4
:107E9000853579F488D0E82EFF2485D0082F10E0AE
:107EA000102F00270E291F29000F111F8ED06801E7
:107EB0006FC0863521F484E090D080E0DECF843638
:107EC00009F040C070D06FD0082F6DD080E0C81688
:107ED00080E7D80618F4F601B7BEE895C0E0D1E017
:107EE00062D089930C17E1F7F0E0CF16F0E7DF06D8
:107EF00018F0F601B7BEE89568D007B600FCFDCFD4
:107F0000A601A0E0B1E02C9130E011968C91119780
:107F100090E0982F8827822B932B1296FA010C0160
:107F200087BEE89511244E5F5F4FF1E0A038BF0790
:107F300051F7F601A7BEE89507B600FCFDCF97BE46
:107F4000E89526C08437B1F42ED02DD0F82E2BD052
:107F50003CD0F601EF2C8F010F5F1F4F84911BD097
:107F6000EA94F801C1F70894C11CD11CFA94CF0C13
:107F7000D11C0EC0853739F428D08EE10CD085E9AC
:107F80000AD08FE07ACF813511F488E018D01DD067
:107F900080E101D065CF982F8091C00085FFFCCF94
:107FA0009093C60008958091C00087FFFCCF809118
:107FB000C00084FD01C0A8958091C6000895E0E648
:107FC000F0E098E1908380830895EDDF803219F02E
:107FD00088E0F5DFFFCF84E1DECF1F93182FE3DFCA
:107FE0001150E9F7F2DF1F91089580E0E8DFEE27F6
:047FF000FF270994CA
:027FFE00040479
:0400000300007E007B
:00000001FF
